{
  "_format": "hh-sol-artifact-1",
  "contractName": "NFTMinter",
  "sourceName": "contracts/NFT.sol",
  "abi": [
    {
      "inputs": [
        {
          "internalType": "string",
          "name": "baseURI",
          "type": "string"
        },
        {
          "internalType": "address",
          "name": "initialOwner",
          "type": "address"
        }
      ],
      "stateMutability": "nonpayable",
      "type": "constructor"
    },
    {
      "inputs": [
        {
          "internalType": "address",
          "name": "sender",
          "type": "address"
        },
        {
          "internalType": "uint256",
          "name": "tokenId",
          "type": "uint256"
        },
        {
          "internalType": "address",
          "name": "owner",
          "type": "address"
        }
      ],
      "name": "ERC721IncorrectOwner",
      "type": "error"
    },
    {
      "inputs": [
        {
          "internalType": "address",
          "name": "operator",
          "type": "address"
        },
        {
          "internalType": "uint256",
          "name": "tokenId",
          "type": "uint256"
        }
      ],
      "name": "ERC721InsufficientApproval",
      "type": "error"
    },
    {
      "inputs": [
        {
          "internalType": "address",
          "name": "approver",
          "type": "address"
        }
      ],
      "name": "ERC721InvalidApprover",
      "type": "error"
    },
    {
      "inputs": [
        {
          "internalType": "address",
          "name": "operator",
          "type": "address"
        }
      ],
      "name": "ERC721InvalidOperator",
      "type": "error"
    },
    {
      "inputs": [
        {
          "internalType": "address",
          "name": "owner",
          "type": "address"
        }
      ],
      "name": "ERC721InvalidOwner",
      "type": "error"
    },
    {
      "inputs": [
        {
          "internalType": "address",
          "name": "receiver",
          "type": "address"
        }
      ],
      "name": "ERC721InvalidReceiver",
      "type": "error"
    },
    {
      "inputs": [
        {
          "internalType": "address",
          "name": "sender",
          "type": "address"
        }
      ],
      "name": "ERC721InvalidSender",
      "type": "error"
    },
    {
      "inputs": [
        {
          "internalType": "uint256",
          "name": "tokenId",
          "type": "uint256"
        }
      ],
      "name": "ERC721NonexistentToken",
      "type": "error"
    },
    {
      "inputs": [
        {
          "internalType": "address",
          "name": "owner",
          "type": "address"
        }
      ],
      "name": "OwnableInvalidOwner",
      "type": "error"
    },
    {
      "inputs": [
        {
          "internalType": "address",
          "name": "account",
          "type": "address"
        }
      ],
      "name": "OwnableUnauthorizedAccount",
      "type": "error"
    },
    {
      "anonymous": false,
      "inputs": [
        {
          "indexed": true,
          "internalType": "address",
          "name": "owner",
          "type": "address"
        },
        {
          "indexed": true,
          "internalType": "address",
          "name": "approved",
          "type": "address"
        },
        {
          "indexed": true,
          "internalType": "uint256",
          "name": "tokenId",
          "type": "uint256"
        }
      ],
      "name": "Approval",
      "type": "event"
    },
    {
      "anonymous": false,
      "inputs": [
        {
          "indexed": true,
          "internalType": "address",
          "name": "owner",
          "type": "address"
        },
        {
          "indexed": true,
          "internalType": "address",
          "name": "operator",
          "type": "address"
        },
        {
          "indexed": false,
          "internalType": "bool",
          "name": "approved",
          "type": "bool"
        }
      ],
      "name": "ApprovalForAll",
      "type": "event"
    },
    {
      "anonymous": false,
      "inputs": [
        {
          "indexed": false,
          "internalType": "uint256",
          "name": "_fromTokenId",
          "type": "uint256"
        },
        {
          "indexed": false,
          "internalType": "uint256",
          "name": "_toTokenId",
          "type": "uint256"
        }
      ],
      "name": "BatchMetadataUpdate",
      "type": "event"
    },
    {
      "anonymous": false,
      "inputs": [
        {
          "indexed": false,
          "internalType": "uint256",
          "name": "_tokenId",
          "type": "uint256"
        }
      ],
      "name": "MetadataUpdate",
      "type": "event"
    },
    {
      "anonymous": false,
      "inputs": [
        {
          "indexed": true,
          "internalType": "address",
          "name": "previousOwner",
          "type": "address"
        },
        {
          "indexed": true,
          "internalType": "address",
          "name": "newOwner",
          "type": "address"
        }
      ],
      "name": "OwnershipTransferred",
      "type": "event"
    },
    {
      "anonymous": false,
      "inputs": [
        {
          "indexed": true,
          "internalType": "address",
          "name": "from",
          "type": "address"
        },
        {
          "indexed": true,
          "internalType": "address",
          "name": "to",
          "type": "address"
        },
        {
          "indexed": true,
          "internalType": "uint256",
          "name": "tokenId",
          "type": "uint256"
        }
      ],
      "name": "Transfer",
      "type": "event"
    },
    {
      "inputs": [],
      "name": "MAX_NFT_SUPPLY",
      "outputs": [
        {
          "internalType": "uint256",
          "name": "",
          "type": "uint256"
        }
      ],
      "stateMutability": "view",
      "type": "function"
    },
    {
      "inputs": [],
      "name": "MAX_PER_WALLET",
      "outputs": [
        {
          "internalType": "uint256",
          "name": "",
          "type": "uint256"
        }
      ],
      "stateMutability": "view",
      "type": "function"
    },
    {
      "inputs": [],
      "name": "MINT_PRICE",
      "outputs": [
        {
          "internalType": "uint256",
          "name": "",
          "type": "uint256"
        }
      ],
      "stateMutability": "view",
      "type": "function"
    },
    {
      "inputs": [
        {
          "internalType": "address",
          "name": "to",
          "type": "address"
        },
        {
          "internalType": "uint256",
          "name": "tokenId",
          "type": "uint256"
        }
      ],
      "name": "approve",
      "outputs": [],
      "stateMutability": "nonpayable",
      "type": "function"
    },
    {
      "inputs": [
        {
          "internalType": "address",
          "name": "owner",
          "type": "address"
        }
      ],
      "name": "balanceOf",
      "outputs": [
        {
          "internalType": "uint256",
          "name": "",
          "type": "uint256"
        }
      ],
      "stateMutability": "view",
      "type": "function"
    },
    {
      "inputs": [
        {
          "internalType": "uint256",
          "name": "tokenId",
          "type": "uint256"
        }
      ],
      "name": "getApproved",
      "outputs": [
        {
          "internalType": "address",
          "name": "",
          "type": "address"
        }
      ],
      "stateMutability": "view",
      "type": "function"
    },
    {
      "inputs": [
        {
          "internalType": "address",
          "name": "owner",
          "type": "address"
        },
        {
          "internalType": "address",
          "name": "operator",
          "type": "address"
        }
      ],
      "name": "isApprovedForAll",
      "outputs": [
        {
          "internalType": "bool",
          "name": "",
          "type": "bool"
        }
      ],
      "stateMutability": "view",
      "type": "function"
    },
    {
      "inputs": [
        {
          "internalType": "string",
          "name": "tokenURI",
          "type": "string"
        }
      ],
      "name": "mintNFT",
      "outputs": [],
      "stateMutability": "payable",
      "type": "function"
    },
    {
      "inputs": [],
      "name": "name",
      "outputs": [
        {
          "internalType": "string",
          "name": "",
          "type": "string"
        }
      ],
      "stateMutability": "view",
      "type": "function"
    },
    {
      "inputs": [],
      "name": "owner",
      "outputs": [
        {
          "internalType": "address",
          "name": "",
          "type": "address"
        }
      ],
      "stateMutability": "view",
      "type": "function"
    },
    {
      "inputs": [
        {
          "internalType": "uint256",
          "name": "tokenId",
          "type": "uint256"
        }
      ],
      "name": "ownerOf",
      "outputs": [
        {
          "internalType": "address",
          "name": "",
          "type": "address"
        }
      ],
      "stateMutability": "view",
      "type": "function"
    },
    {
      "inputs": [],
      "name": "renounceOwnership",
      "outputs": [],
      "stateMutability": "nonpayable",
      "type": "function"
    },
    {
      "inputs": [
        {
          "internalType": "address",
          "name": "from",
          "type": "address"
        },
        {
          "internalType": "address",
          "name": "to",
          "type": "address"
        },
        {
          "internalType": "uint256",
          "name": "tokenId",
          "type": "uint256"
        }
      ],
      "name": "safeTransferFrom",
      "outputs": [],
      "stateMutability": "nonpayable",
      "type": "function"
    },
    {
      "inputs": [
        {
          "internalType": "address",
          "name": "from",
          "type": "address"
        },
        {
          "internalType": "address",
          "name": "to",
          "type": "address"
        },
        {
          "internalType": "uint256",
          "name": "tokenId",
          "type": "uint256"
        },
        {
          "internalType": "bytes",
          "name": "data",
          "type": "bytes"
        }
      ],
      "name": "safeTransferFrom",
      "outputs": [],
      "stateMutability": "nonpayable",
      "type": "function"
    },
    {
      "inputs": [
        {
          "internalType": "address",
          "name": "operator",
          "type": "address"
        },
        {
          "internalType": "bool",
          "name": "approved",
          "type": "bool"
        }
      ],
      "name": "setApprovalForAll",
      "outputs": [],
      "stateMutability": "nonpayable",
      "type": "function"
    },
    {
      "inputs": [
        {
          "internalType": "string",
          "name": "baseURI",
          "type": "string"
        }
      ],
      "name": "setBaseURI",
      "outputs": [],
      "stateMutability": "nonpayable",
      "type": "function"
    },
    {
      "inputs": [
        {
          "internalType": "bytes4",
          "name": "interfaceId",
          "type": "bytes4"
        }
      ],
      "name": "supportsInterface",
      "outputs": [
        {
          "internalType": "bool",
          "name": "",
          "type": "bool"
        }
      ],
      "stateMutability": "view",
      "type": "function"
    },
    {
      "inputs": [],
      "name": "symbol",
      "outputs": [
        {
          "internalType": "string",
          "name": "",
          "type": "string"
        }
      ],
      "stateMutability": "view",
      "type": "function"
    },
    {
      "inputs": [
        {
          "internalType": "uint256",
          "name": "tokenId",
          "type": "uint256"
        }
      ],
      "name": "tokenURI",
      "outputs": [
        {
          "internalType": "string",
          "name": "",
          "type": "string"
        }
      ],
      "stateMutability": "view",
      "type": "function"
    },
    {
      "inputs": [
        {
          "internalType": "address",
          "name": "from",
          "type": "address"
        },
        {
          "internalType": "address",
          "name": "to",
          "type": "address"
        },
        {
          "internalType": "uint256",
          "name": "tokenId",
          "type": "uint256"
        }
      ],
      "name": "transferFrom",
      "outputs": [],
      "stateMutability": "nonpayable",
      "type": "function"
    },
    {
      "inputs": [
        {
          "internalType": "address",
          "name": "newOwner",
          "type": "address"
        }
      ],
      "name": "transferOwnership",
      "outputs": [],
      "stateMutability": "nonpayable",
      "type": "function"
    },
    {
      "inputs": [
        {
          "internalType": "address",
          "name": "",
          "type": "address"
        }
      ],
      "name": "walletMints",
      "outputs": [
        {
          "internalType": "uint256",
          "name": "",
          "type": "uint256"
        }
      ],
      "stateMutability": "view",
      "type": "function"
    },
    {
      "inputs": [],
      "name": "withdraw",
      "outputs": [],
      "stateMutability": "nonpayable",
      "type": "function"
    }
  ],
  "bytecode": "0x60806040523480156200001157600080fd5b50604051620033ce380380620033ce833981810160405281019062000037919062000429565b806040518060400160405280600981526020017f507566666c654e465400000000000000000000000000000000000000000000008152506040518060400160405280600681526020017f505546464c4500000000000000000000000000000000000000000000000000008152508160009081620000b59190620006da565b508060019081620000c79190620006da565b505050600073ffffffffffffffffffffffffffffffffffffffff168173ffffffffffffffffffffffffffffffffffffffff16036200013f5760006040517f1e4fbdf7000000000000000000000000000000000000000000000000000000008152600401620001369190620007d2565b60405180910390fd5b62000150816200016b60201b60201c565b508160099081620001629190620006da565b505050620007ef565b6000600760009054906101000a900473ffffffffffffffffffffffffffffffffffffffff16905081600760006101000a81548173ffffffffffffffffffffffffffffffffffffffff021916908373ffffffffffffffffffffffffffffffffffffffff1602179055508173ffffffffffffffffffffffffffffffffffffffff168173ffffffffffffffffffffffffffffffffffffffff167f8be0079c531659141344cd1fd0a4f28419497f9722a3daafe3b4186f6b6457e060405160405180910390a35050565b6000604051905090565b600080fd5b600080fd5b600080fd5b600080fd5b6000601f19601f8301169050919050565b7f4e487b7100000000000000000000000000000000000000000000000000000000600052604160045260246000fd5b6200029a826200024f565b810181811067ffffffffffffffff82111715620002bc57620002bb62000260565b5b80604052505050565b6000620002d162000231565b9050620002df82826200028f565b919050565b600067ffffffffffffffff82111562000302576200030162000260565b5b6200030d826200024f565b9050602081019050919050565b60005b838110156200033a5780820151818401526020810190506200031d565b60008484015250505050565b60006200035d6200035784620002e4565b620002c5565b9050828152602081018484840111156200037c576200037b6200024a565b5b620003898482856200031a565b509392505050565b600082601f830112620003a957620003a862000245565b5b8151620003bb84826020860162000346565b91505092915050565b600073ffffffffffffffffffffffffffffffffffffffff82169050919050565b6000620003f182620003c4565b9050919050565b6200040381620003e4565b81146200040f57600080fd5b50565b6000815190506200042381620003f8565b92915050565b600080604083850312156200044357620004426200023b565b5b600083015167ffffffffffffffff81111562000464576200046362000240565b5b620004728582860162000391565b9250506020620004858582860162000412565b9150509250929050565b600081519050919050565b7f4e487b7100000000000000000000000000000000000000000000000000000000600052602260045260246000fd5b60006002820490506001821680620004e257607f821691505b602082108103620004f857620004f76200049a565b5b50919050565b60008190508160005260206000209050919050565b60006020601f8301049050919050565b600082821b905092915050565b600060088302620005627fffffffffffffffffffffffffffffffffffffffffffffffffffffffffffffffff8262000523565b6200056e868362000523565b95508019841693508086168417925050509392505050565b6000819050919050565b6000819050919050565b6000620005bb620005b5620005af8462000586565b62000590565b62000586565b9050919050565b6000819050919050565b620005d7836200059a565b620005ef620005e682620005c2565b84845462000530565b825550505050565b600090565b62000606620005f7565b62000613818484620005cc565b505050565b5b818110156200063b576200062f600082620005fc565b60018101905062000619565b5050565b601f8211156200068a576200065481620004fe565b6200065f8462000513565b810160208510156200066f578190505b620006876200067e8562000513565b83018262000618565b50505b505050565b600082821c905092915050565b6000620006af600019846008026200068f565b1980831691505092915050565b6000620006ca83836200069c565b9150826002028217905092915050565b620006e5826200048f565b67ffffffffffffffff81111562000701576200070062000260565b5b6200070d8254620004c9565b6200071a8282856200063f565b600060209050601f8311600181146200075257600084156200073d578287015190505b620007498582620006bc565b865550620007b9565b601f1984166200076286620004fe565b60005b828110156200078c5784890151825560018201915060208501945060208101905062000765565b86831015620007ac5784890151620007a8601f8916826200069c565b8355505b6001600288020188555050505b505050505050565b620007cc81620003e4565b82525050565b6000602082019050620007e96000830184620007c1565b92915050565b612bcf80620007ff6000396000f3fe6080604052600436106101405760003560e01c8063715018a6116100b6578063c002d23d1161006f578063c002d23d14610434578063c87b56dd1461045f578063e985e9c51461049c578063f0293fd3146104d9578063f2fde38b14610516578063fb37e8831461053f57610140565b8063715018a61461034a5780638da5cb5b1461036157806395d89b411461038c578063a22cb465146103b7578063b5077f44146103e0578063b88d4fde1461040b57610140565b806323b872dd1161010857806323b872dd1461023e5780633ccfd60b1461026757806342842e0e1461027e57806355f804b3146102a75780636352211e146102d057806370a082311461030d57610140565b806301ffc9a71461014557806306fdde0314610182578063081812fc146101ad578063095ea7b3146101ea5780630f2cdd6c14610213575b600080fd5b34801561015157600080fd5b5061016c60048036038101906101679190611ef6565b61055b565b6040516101799190611f3e565b60405180910390f35b34801561018e57600080fd5b506101976105bc565b6040516101a49190611fe9565b60405180910390f35b3480156101b957600080fd5b506101d460048036038101906101cf9190612041565b61064e565b6040516101e191906120af565b60405180910390f35b3480156101f657600080fd5b50610211600480360381019061020c91906120f6565b61066a565b005b34801561021f57600080fd5b50610228610680565b6040516102359190612145565b60405180910390f35b34801561024a57600080fd5b5061026560048036038101906102609190612160565b610685565b005b34801561027357600080fd5b5061027c610787565b005b34801561028a57600080fd5b506102a560048036038101906102a09190612160565b6107df565b005b3480156102b357600080fd5b506102ce60048036038101906102c991906122e8565b6107ff565b005b3480156102dc57600080fd5b506102f760048036038101906102f29190612041565b61081a565b60405161030491906120af565b60405180910390f35b34801561031957600080fd5b50610334600480360381019061032f9190612331565b61082c565b6040516103419190612145565b60405180910390f35b34801561035657600080fd5b5061035f6108e6565b005b34801561036d57600080fd5b506103766108fa565b60405161038391906120af565b60405180910390f35b34801561039857600080fd5b506103a1610924565b6040516103ae9190611fe9565b60405180910390f35b3480156103c357600080fd5b506103de60048036038101906103d9919061238a565b6109b6565b005b3480156103ec57600080fd5b506103f56109cc565b6040516104029190612145565b60405180910390f35b34801561041757600080fd5b50610432600480360381019061042d919061246b565b6109d1565b005b34801561044057600080fd5b506104496109ee565b6040516104569190612145565b60405180910390f35b34801561046b57600080fd5b5061048660048036038101906104819190612041565b6109f9565b6040516104939190611fe9565b60405180910390f35b3480156104a857600080fd5b506104c360048036038101906104be91906124ee565b610b0c565b6040516104d09190611f3e565b60405180910390f35b3480156104e557600080fd5b5061050060048036038101906104fb9190612331565b610ba0565b60405161050d9190612145565b60405180910390f35b34801561052257600080fd5b5061053d60048036038101906105389190612331565b610bb8565b005b610559600480360381019061055491906122e8565b610c3e565b005b6000634906490660e01b7bffffffffffffffffffffffffffffffffffffffffffffffffffffffff1916827bffffffffffffffffffffffffffffffffffffffffffffffffffffffff191614806105b557506105b482610dda565b5b9050919050565b6060600080546105cb9061255d565b80601f01602080910402602001604051908101604052809291908181526020018280546105f79061255d565b80156106445780601f1061061957610100808354040283529160200191610644565b820191906000526020600020905b81548152906001019060200180831161062757829003601f168201915b5050505050905090565b600061065982610ebc565b5061066382610f44565b9050919050565b61067c8282610677610f81565b610f89565b5050565b600281565b600073ffffffffffffffffffffffffffffffffffffffff168273ffffffffffffffffffffffffffffffffffffffff16036106f75760006040517f64a0ae920000000000000000000000000000000000000000000000000000000081526004016106ee91906120af565b60405180910390fd5b600061070b8383610706610f81565b610f9b565b90508373ffffffffffffffffffffffffffffffffffffffff168173ffffffffffffffffffffffffffffffffffffffff1614610781578382826040517f64283d7b0000000000000000000000000000000000000000000000000000000081526004016107789392919061258e565b60405180910390fd5b50505050565b61078f6111b5565b6107976108fa565b73ffffffffffffffffffffffffffffffffffffffff166108fc479081150290604051600060405180830381858888f193505050501580156107dc573d6000803e3d6000fd5b50565b6107fa838383604051806020016040528060008152506109d1565b505050565b6108076111b5565b80600990816108169190612771565b5050565b600061082582610ebc565b9050919050565b60008073ffffffffffffffffffffffffffffffffffffffff168273ffffffffffffffffffffffffffffffffffffffff160361089f5760006040517f89c62b6400000000000000000000000000000000000000000000000000000000815260040161089691906120af565b60405180910390fd5b600360008373ffffffffffffffffffffffffffffffffffffffff1673ffffffffffffffffffffffffffffffffffffffff168152602001908152602001600020549050919050565b6108ee6111b5565b6108f8600061123c565b565b6000600760009054906101000a900473ffffffffffffffffffffffffffffffffffffffff16905090565b6060600180546109339061255d565b80601f016020809104026020016040519081016040528092919081815260200182805461095f9061255d565b80156109ac5780601f10610981576101008083540402835291602001916109ac565b820191906000526020600020905b81548152906001019060200180831161098f57829003601f168201915b5050505050905090565b6109c86109c1610f81565b8383611302565b5050565b600a81565b6109dc848484610685565b6109e884848484611471565b50505050565b662386f26fc1000081565b6060610a0482610ebc565b506000600660008481526020019081526020016000208054610a259061255d565b80601f0160208091040260200160405190810160405280929190818152602001828054610a519061255d565b8015610a9e5780601f10610a7357610100808354040283529160200191610a9e565b820191906000526020600020905b815481529060010190602001808311610a8157829003601f168201915b505050505090506000610aaf611628565b90506000815103610ac4578192505050610b07565b600082511115610af9578082604051602001610ae192919061287f565b60405160208183030381529060405292505050610b07565b610b02846116ba565b925050505b919050565b6000600560008473ffffffffffffffffffffffffffffffffffffffff1673ffffffffffffffffffffffffffffffffffffffff16815260200190815260200160002060008373ffffffffffffffffffffffffffffffffffffffff1673ffffffffffffffffffffffffffffffffffffffff16815260200190815260200160002060009054906101000a900460ff16905092915050565b600a6020528060005260406000206000915090505481565b610bc06111b5565b600073ffffffffffffffffffffffffffffffffffffffff168173ffffffffffffffffffffffffffffffffffffffff1603610c325760006040517f1e4fbdf7000000000000000000000000000000000000000000000000000000008152600401610c2991906120af565b60405180910390fd5b610c3b8161123c565b50565b600a60085410610c83576040517f08c379a0000000000000000000000000000000000000000000000000000000008152600401610c7a906128ef565b60405180910390fd5b662386f26fc100003414610ccc576040517f08c379a0000000000000000000000000000000000000000000000000000000008152600401610cc39061295b565b60405180910390fd5b6002600a60003373ffffffffffffffffffffffffffffffffffffffff1673ffffffffffffffffffffffffffffffffffffffff1681526020019081526020016000205410610d4e576040517f08c379a0000000000000000000000000000000000000000000000000000000008152600401610d45906129c7565b60405180910390fd5b600a60003373ffffffffffffffffffffffffffffffffffffffff1673ffffffffffffffffffffffffffffffffffffffff1681526020019081526020016000206000815480929190610d9e90612a16565b919050555060086000815480929190610db690612a16565b919050555060006008549050610dcc3382611723565b610dd6818361181c565b5050565b60007f80ac58cd000000000000000000000000000000000000000000000000000000007bffffffffffffffffffffffffffffffffffffffffffffffffffffffff1916827bffffffffffffffffffffffffffffffffffffffffffffffffffffffff19161480610ea557507f5b5e139f000000000000000000000000000000000000000000000000000000007bffffffffffffffffffffffffffffffffffffffffffffffffffffffff1916827bffffffffffffffffffffffffffffffffffffffffffffffffffffffff1916145b80610eb55750610eb482611878565b5b9050919050565b600080610ec8836118e2565b9050600073ffffffffffffffffffffffffffffffffffffffff168173ffffffffffffffffffffffffffffffffffffffff1603610f3b57826040517f7e273289000000000000000000000000000000000000000000000000000000008152600401610f329190612145565b60405180910390fd5b80915050919050565b60006004600083815260200190815260200160002060009054906101000a900473ffffffffffffffffffffffffffffffffffffffff169050919050565b600033905090565b610f96838383600161191f565b505050565b600080610fa7846118e2565b9050600073ffffffffffffffffffffffffffffffffffffffff168373ffffffffffffffffffffffffffffffffffffffff1614610fe957610fe8818486611ae4565b5b600073ffffffffffffffffffffffffffffffffffffffff168173ffffffffffffffffffffffffffffffffffffffff161461107a5761102b60008560008061191f565b6001600360008373ffffffffffffffffffffffffffffffffffffffff1673ffffffffffffffffffffffffffffffffffffffff168152602001908152602001600020600082825403925050819055505b600073ffffffffffffffffffffffffffffffffffffffff168573ffffffffffffffffffffffffffffffffffffffff16146110fd576001600360008773ffffffffffffffffffffffffffffffffffffffff1673ffffffffffffffffffffffffffffffffffffffff168152602001908152602001600020600082825401925050819055505b846002600086815260200190815260200160002060006101000a81548173ffffffffffffffffffffffffffffffffffffffff021916908373ffffffffffffffffffffffffffffffffffffffff160217905550838573ffffffffffffffffffffffffffffffffffffffff168273ffffffffffffffffffffffffffffffffffffffff167fddf252ad1be2c89b69c2b068fc378daa952ba7f163c4a11628f55a4df523b3ef60405160405180910390a4809150509392505050565b6111bd610f81565b73ffffffffffffffffffffffffffffffffffffffff166111db6108fa565b73ffffffffffffffffffffffffffffffffffffffff161461123a576111fe610f81565b6040517f118cdaa700000000000000000000000000000000000000000000000000000000815260040161123191906120af565b60405180910390fd5b565b6000600760009054906101000a900473ffffffffffffffffffffffffffffffffffffffff16905081600760006101000a81548173ffffffffffffffffffffffffffffffffffffffff021916908373ffffffffffffffffffffffffffffffffffffffff1602179055508173ffffffffffffffffffffffffffffffffffffffff168173ffffffffffffffffffffffffffffffffffffffff167f8be0079c531659141344cd1fd0a4f28419497f9722a3daafe3b4186f6b6457e060405160405180910390a35050565b600073ffffffffffffffffffffffffffffffffffffffff168273ffffffffffffffffffffffffffffffffffffffff160361137357816040517f5b08ba1800000000000000000000000000000000000000000000000000000000815260040161136a91906120af565b60405180910390fd5b80600560008573ffffffffffffffffffffffffffffffffffffffff1673ffffffffffffffffffffffffffffffffffffffff16815260200190815260200160002060008473ffffffffffffffffffffffffffffffffffffffff1673ffffffffffffffffffffffffffffffffffffffff16815260200190815260200160002060006101000a81548160ff0219169083151502179055508173ffffffffffffffffffffffffffffffffffffffff168373ffffffffffffffffffffffffffffffffffffffff167f17307eab39ab6107e8899845ad3d59bd9653f200f220920489ca2b5937696c31836040516114649190611f3e565b60405180910390a3505050565b60008373ffffffffffffffffffffffffffffffffffffffff163b1115611622578273ffffffffffffffffffffffffffffffffffffffff1663150b7a026114b5610f81565b8685856040518563ffffffff1660e01b81526004016114d79493929190612ab3565b6020604051808303816000875af192505050801561151357506040513d601f19601f820116820180604052508101906115109190612b14565b60015b611597573d8060008114611543576040519150601f19603f3d011682016040523d82523d6000602084013e611548565b606091505b50600081510361158f57836040517f64a0ae9200000000000000000000000000000000000000000000000000000000815260040161158691906120af565b60405180910390fd5b805181602001fd5b63150b7a0260e01b7bffffffffffffffffffffffffffffffffffffffffffffffffffffffff1916817bffffffffffffffffffffffffffffffffffffffffffffffffffffffff19161461162057836040517f64a0ae9200000000000000000000000000000000000000000000000000000000815260040161161791906120af565b60405180910390fd5b505b50505050565b6060600980546116379061255d565b80601f01602080910402602001604051908101604052809291908181526020018280546116639061255d565b80156116b05780601f10611685576101008083540402835291602001916116b0565b820191906000526020600020905b81548152906001019060200180831161169357829003601f168201915b5050505050905090565b60606116c582610ebc565b5060006116d0611628565b905060008151116116f0576040518060200160405280600081525061171b565b806116fa84611ba8565b60405160200161170b92919061287f565b6040516020818303038152906040525b915050919050565b600073ffffffffffffffffffffffffffffffffffffffff168273ffffffffffffffffffffffffffffffffffffffff16036117955760006040517f64a0ae9200000000000000000000000000000000000000000000000000000000815260040161178c91906120af565b60405180910390fd5b60006117a383836000610f9b565b9050600073ffffffffffffffffffffffffffffffffffffffff168173ffffffffffffffffffffffffffffffffffffffff16146118175760006040517f73c6ac6e00000000000000000000000000000000000000000000000000000000815260040161180e91906120af565b60405180910390fd5b505050565b8060066000848152602001908152602001600020908161183c9190612771565b507ff8e1a15aba9398e019f0b49df1a4fde98ee17ae345cb5f6b5e2c27f5033e8ce78260405161186c9190612145565b60405180910390a15050565b60007f01ffc9a7000000000000000000000000000000000000000000000000000000007bffffffffffffffffffffffffffffffffffffffffffffffffffffffff1916827bffffffffffffffffffffffffffffffffffffffffffffffffffffffff1916149050919050565b60006002600083815260200190815260200160002060009054906101000a900473ffffffffffffffffffffffffffffffffffffffff169050919050565b80806119585750600073ffffffffffffffffffffffffffffffffffffffff168273ffffffffffffffffffffffffffffffffffffffff1614155b15611a8c57600061196884610ebc565b9050600073ffffffffffffffffffffffffffffffffffffffff168373ffffffffffffffffffffffffffffffffffffffff16141580156119d357508273ffffffffffffffffffffffffffffffffffffffff168173ffffffffffffffffffffffffffffffffffffffff1614155b80156119e657506119e48184610b0c565b155b15611a2857826040517fa9fbf51f000000000000000000000000000000000000000000000000000000008152600401611a1f91906120af565b60405180910390fd5b8115611a8a57838573ffffffffffffffffffffffffffffffffffffffff168273ffffffffffffffffffffffffffffffffffffffff167f8c5be1e5ebec7d5bd14f71427d1e84f3dd0314c0f7b2291e5b200ac8c7c3b92560405160405180910390a45b505b836004600085815260200190815260200160002060006101000a81548173ffffffffffffffffffffffffffffffffffffffff021916908373ffffffffffffffffffffffffffffffffffffffff16021790555050505050565b611aef838383611c76565b611ba357600073ffffffffffffffffffffffffffffffffffffffff168373ffffffffffffffffffffffffffffffffffffffff1603611b6457806040517f7e273289000000000000000000000000000000000000000000000000000000008152600401611b5b9190612145565b60405180910390fd5b81816040517f177e802f000000000000000000000000000000000000000000000000000000008152600401611b9a929190612b41565b60405180910390fd5b505050565b606060006001611bb784611d37565b01905060008167ffffffffffffffff811115611bd657611bd56121bd565b5b6040519080825280601f01601f191660200182016040528015611c085781602001600182028036833780820191505090505b509050600082602001820190505b600115611c6b578080600190039150507f3031323334353637383961626364656600000000000000000000000000000000600a86061a8153600a8581611c5f57611c5e612b6a565b5b04945060008503611c16575b819350505050919050565b60008073ffffffffffffffffffffffffffffffffffffffff168373ffffffffffffffffffffffffffffffffffffffff1614158015611d2e57508273ffffffffffffffffffffffffffffffffffffffff168473ffffffffffffffffffffffffffffffffffffffff161480611cef5750611cee8484610b0c565b5b80611d2d57508273ffffffffffffffffffffffffffffffffffffffff16611d1583610f44565b73ffffffffffffffffffffffffffffffffffffffff16145b5b90509392505050565b600080600090507a184f03e93ff9f4daa797ed6e38ed64bf6a1f0100000000000000008310611d95577a184f03e93ff9f4daa797ed6e38ed64bf6a1f0100000000000000008381611d8b57611d8a612b6a565b5b0492506040810190505b6d04ee2d6d415b85acef81000000008310611dd2576d04ee2d6d415b85acef81000000008381611dc857611dc7612b6a565b5b0492506020810190505b662386f26fc100008310611e0157662386f26fc100008381611df757611df6612b6a565b5b0492506010810190505b6305f5e1008310611e2a576305f5e1008381611e2057611e1f612b6a565b5b0492506008810190505b6127108310611e4f576127108381611e4557611e44612b6a565b5b0492506004810190505b60648310611e725760648381611e6857611e67612b6a565b5b0492506002810190505b600a8310611e81576001810190505b80915050919050565b6000604051905090565b600080fd5b600080fd5b60007fffffffff0000000000000000000000000000000000000000000000000000000082169050919050565b611ed381611e9e565b8114611ede57600080fd5b50565b600081359050611ef081611eca565b92915050565b600060208284031215611f0c57611f0b611e94565b5b6000611f1a84828501611ee1565b91505092915050565b60008115159050919050565b611f3881611f23565b82525050565b6000602082019050611f536000830184611f2f565b92915050565b600081519050919050565b600082825260208201905092915050565b60005b83811015611f93578082015181840152602081019050611f78565b60008484015250505050565b6000601f19601f8301169050919050565b6000611fbb82611f59565b611fc58185611f64565b9350611fd5818560208601611f75565b611fde81611f9f565b840191505092915050565b600060208201905081810360008301526120038184611fb0565b905092915050565b6000819050919050565b61201e8161200b565b811461202957600080fd5b50565b60008135905061203b81612015565b92915050565b60006020828403121561205757612056611e94565b5b60006120658482850161202c565b91505092915050565b600073ffffffffffffffffffffffffffffffffffffffff82169050919050565b60006120998261206e565b9050919050565b6120a98161208e565b82525050565b60006020820190506120c460008301846120a0565b92915050565b6120d38161208e565b81146120de57600080fd5b50565b6000813590506120f0816120ca565b92915050565b6000806040838503121561210d5761210c611e94565b5b600061211b858286016120e1565b925050602061212c8582860161202c565b9150509250929050565b61213f8161200b565b82525050565b600060208201905061215a6000830184612136565b92915050565b60008060006060848603121561217957612178611e94565b5b6000612187868287016120e1565b9350506020612198868287016120e1565b92505060406121a98682870161202c565b9150509250925092565b600080fd5b600080fd5b7f4e487b7100000000000000000000000000000000000000000000000000000000600052604160045260246000fd5b6121f582611f9f565b810181811067ffffffffffffffff82111715612214576122136121bd565b5b80604052505050565b6000612227611e8a565b905061223382826121ec565b919050565b600067ffffffffffffffff821115612253576122526121bd565b5b61225c82611f9f565b9050602081019050919050565b82818337600083830152505050565b600061228b61228684612238565b61221d565b9050828152602081018484840111156122a7576122a66121b8565b5b6122b2848285612269565b509392505050565b600082601f8301126122cf576122ce6121b3565b5b81356122df848260208601612278565b91505092915050565b6000602082840312156122fe576122fd611e94565b5b600082013567ffffffffffffffff81111561231c5761231b611e99565b5b612328848285016122ba565b91505092915050565b60006020828403121561234757612346611e94565b5b6000612355848285016120e1565b91505092915050565b61236781611f23565b811461237257600080fd5b50565b6000813590506123848161235e565b92915050565b600080604083850312156123a1576123a0611e94565b5b60006123af858286016120e1565b92505060206123c085828601612375565b9150509250929050565b600067ffffffffffffffff8211156123e5576123e46121bd565b5b6123ee82611f9f565b9050602081019050919050565b600061240e612409846123ca565b61221d565b90508281526020810184848401111561242a576124296121b8565b5b612435848285612269565b509392505050565b600082601f830112612452576124516121b3565b5b81356124628482602086016123fb565b91505092915050565b6000806000806080858703121561248557612484611e94565b5b6000612493878288016120e1565b94505060206124a4878288016120e1565b93505060406124b58782880161202c565b925050606085013567ffffffffffffffff8111156124d6576124d5611e99565b5b6124e28782880161243d565b91505092959194509250565b6000806040838503121561250557612504611e94565b5b6000612513858286016120e1565b9250506020612524858286016120e1565b9150509250929050565b7f4e487b7100000000000000000000000000000000000000000000000000000000600052602260045260246000fd5b6000600282049050600182168061257557607f821691505b6020821081036125885761258761252e565b5b50919050565b60006060820190506125a360008301866120a0565b6125b06020830185612136565b6125bd60408301846120a0565b949350505050565b60008190508160005260206000209050919050565b60006020601f8301049050919050565b600082821b905092915050565b6000600883026126277fffffffffffffffffffffffffffffffffffffffffffffffffffffffffffffffff826125ea565b61263186836125ea565b95508019841693508086168417925050509392505050565b6000819050919050565b600061266e6126696126648461200b565b612649565b61200b565b9050919050565b6000819050919050565b61268883612653565b61269c61269482612675565b8484546125f7565b825550505050565b600090565b6126b16126a4565b6126bc81848461267f565b505050565b5b818110156126e0576126d56000826126a9565b6001810190506126c2565b5050565b601f821115612725576126f6816125c5565b6126ff846125da565b8101602085101561270e578190505b61272261271a856125da565b8301826126c1565b50505b505050565b600082821c905092915050565b60006127486000198460080261272a565b1980831691505092915050565b60006127618383612737565b9150826002028217905092915050565b61277a82611f59565b67ffffffffffffffff811115612793576127926121bd565b5b61279d825461255d565b6127a88282856126e4565b600060209050601f8311600181146127db57600084156127c9578287015190505b6127d38582612755565b86555061283b565b601f1984166127e9866125c5565b60005b82811015612811578489015182556001820191506020850194506020810190506127ec565b8683101561282e578489015161282a601f891682612737565b8355505b6001600288020188555050505b505050505050565b600081905092915050565b600061285982611f59565b6128638185612843565b9350612873818560208601611f75565b80840191505092915050565b600061288b828561284e565b9150612897828461284e565b91508190509392505050565b7f416c6c204e4654732068617665206265656e206d696e74656400000000000000600082015250565b60006128d9601983611f64565b91506128e4826128a3565b602082019050919050565b60006020820190508181036000830152612908816128cc565b9050919050565b7f496e636f7272656374206d696e74207072696365000000000000000000000000600082015250565b6000612945601483611f64565b91506129508261290f565b602082019050919050565b6000602082019050818103600083015261297481612938565b9050919050565b7f4d6178204e465473207065722077616c6c657420726561636865640000000000600082015250565b60006129b1601b83611f64565b91506129bc8261297b565b602082019050919050565b600060208201905081810360008301526129e0816129a4565b9050919050565b7f4e487b7100000000000000000000000000000000000000000000000000000000600052601160045260246000fd5b6000612a218261200b565b91507fffffffffffffffffffffffffffffffffffffffffffffffffffffffffffffffff8203612a5357612a526129e7565b5b600182019050919050565b600081519050919050565b600082825260208201905092915050565b6000612a8582612a5e565b612a8f8185612a69565b9350612a9f818560208601611f75565b612aa881611f9f565b840191505092915050565b6000608082019050612ac860008301876120a0565b612ad560208301866120a0565b612ae26040830185612136565b8181036060830152612af48184612a7a565b905095945050505050565b600081519050612b0e81611eca565b92915050565b600060208284031215612b2a57612b29611e94565b5b6000612b3884828501612aff565b91505092915050565b6000604082019050612b5660008301856120a0565b612b636020830184612136565b9392505050565b7f4e487b7100000000000000000000000000000000000000000000000000000000600052601260045260246000fdfea2646970667358221220253dbe37e87ba30ea21296e4f786b1101397c832b95a2e08022fd16e9ae0bd1e64736f6c63430008140033",
  "linkReferences": {},
  "deployedLinkReferences": {}
}